:020000040800F2
:10000000080C002065010008E3200008051A00081C
:10001000E12000086B02000827260008000000000D
:10002000000000000000000000000000B3210008F4
:100030006D0200080000000005210008B52100083D
:100040007F0100087F0100087F0100087F01000890
:100050007F0100087F0100087102000855030008B5
:10006000B503000815040008750400087F010008A6
:100070007F0100087F0100087F0100087F01000860
:100080007F0100087F0100087F0100087F01000850
:100090007F0100087F0100087F0100087F01000840
:1000A0007F010008A92200087F0100087F010008E5
:1000B0007F0100087F0100087F0100087F01000820
:1000C0007F0100087F0100087F0100087F01000810
:1000D0007F0100087F0100087F0100087F01000800
:1000E000D10200087F0100087F0100080000000025
:1000F0000000000000000000000000000000000000
:1001000000000000000000007F0100080921000835
:100110007F0100087F0100087F0100087F010008BF
:100120007F0100087F0100087F0100087F010008AF
:100130007F0100087F0100087F0100087F0100089F
:100140007F0100087F0100087F0100087F0100088F
:10015000DFF80CD000F048F800480047992C000860
:10016000080C00200648804706480047FEE7FEE7E7
:10017000FEE7FEE7FEE7FEE7FEE7FEE7FEE7FEE757
:1001800055220008510100080649074A08685043F3
:1001900043F2390210440860400870470149086082
:1001A00070470000900600206D4EC641421C10F8BA
:1001B000011B0029FBD1801A704730B50B46014660
:1001C00000202022012409E021FA02F59D4205D3F6
:1001D00003FA02F5491B04FA02F52844151EA2F1A0
:1001E0000102F1DC30BD0000064C074D06E0E0687E
:1001F00040F0010394E8070098471034AC42F6D36E
:10020000FFF7AAFF144000083440000870B58D18AD
:1002100010F8014B14F0030201D110F8012B231147
:1002200006D110F8013B03E010F8016B01F8016BF7
:10023000521EF9D1ABB110F8012B04F00C048A1A4C
:100240000C2C03D0A2EB84129B1C08E010F8014B8D
:10025000A2EB0422F8E712F8014B01F8014B5B1EF8
:10026000F9D5A942D4D3002070BDFEE77047000045
:100270000EB5012000F03AF910480068012801D1BC
:100280000F4908600F4A07CA8DE807000E4800684A
:100290000168C9434906FBD44FF47A730A226946C0
:1002A000094801F049FB09480168012904D00529E2
:1002B00001D1002101600EBD0221FBE7D006002024
:1002C00094060020F02D0008B40700200400002050
:1002D00000B587B04FF4006000F008F94FF480508B
:1002E00000F004F94FF4005000F000F94FF48040A2
:1002F00000F0FCF84FF4004000F0F8F80E4800F170
:1003000008010EC98DE80E00D0E900230BA103A857
:1003100002F08AF90E4800680168C9434906FBD417
:1003200003A8FFF743FF82B24FF47A7303A908488A
:1003300001F002FB07B000BDD006002025643A257D
:1003400064202564202564202564200D0000000021
:10035000B40700200EB5022000F0C8F8104840682D
:10036000012801D10F4948600F4A07CA8DE80700EC
:100370000E4800680168C9434906FBD44FF47A73FC
:100380000A226946094801F0D7FA0948016801299B
:1003900004D0052901D1002101600EBD0221FBE737
:1003A000D006002094060020FC2D0008B407002091
:1003B000040000200EB5042000F098F81048806872
:1003C000012801D10F4988600F4A07CA8DE807004C
:1003D0000E4800680168C9434906FBD44FF47A739C
:1003E0000A226946094801F0A7FA0948016801296B
:1003F00004D0052901D1002101600EBD0221FBE7D7
:10040000D006002094060020082E0008B407002023
:10041000040000200EB5082000F068F81048C068FD
:10042000012801D10F49C8600F4A07CA8DE80700AB
:100430000E4800680168C9434906FBD44FF47A733B
:100440000A226946094801F077FA0948016801293A
:1004500004D0052901D1002101600EBD0221FBE776
:10046000D006002094060020142E0008B4070020B7
:10047000040000200EB5102000F038F81048006984
:10048000012801D10F4908610F4A07CA8DE807000A
:100490000E4800680168C9434906FBD44FF47A73DB
:1004A0000A226946094801F047FA0948016801290A
:1004B00004D0052901D1002101600EBD0221FBE716
:1004C000D006002094060020202E0008B40700204B
:1004D0000400002031B500F0F9F8044600F0F6F809
:1004E0000099001B8842F9D338BD7047044910B504
:1004F0000A68024202D00860FFF7F7FF10BD000053
:10050000140401402DE9F84FDFF890A100220AF110
:10051000040B144601274FF00F090BF1040E00BF26
:100520000B6807FA04F52B40AB4274D1DFF870C1B9
:100530004E68A6EB0C0866452BD00DDC032E34D09C
:1005400005DC36B3012E19D0022E2FD11BE0112E5F
:1005500016D0122E2AD119E0B8F5881F19D006DC62
:10056000B8F5803F15D0B8F5801F1FD111E0B8F560
:10057000001F0ED0B8F5041F18D10AE0CA6815E0B4
:10058000CA68121D12E0CA6808320FE0CA680C324D
:100590000CE08A682AB1012A4FF0080203D04561B5
:1005A00004E0042202E0056100E00022FF2B01D8F4
:1005B000064601E000F104064FEA840501D9A5F1E1
:1005C0002005D6F800C009FA05F82CEA080C02FA52
:1005D00005F54CEA050CC6F800C04D68ED0057D58E
:1005E000304DAE6946F00106AE61AD6924F00306F8
:1005F00005F0010500952C4D06EB050CDCF80850C4
:10060000A6074FEA167809FA08F6B543274EB04216
:1006100002D1002610E03BE0254EB04201D1012678
:100620000AE0244EB04201D1022605E0224EB0423B
:1006300001D1032600E0042606FA08F62E43CCF882
:1006400008604D68DAF80060ED03554601D51E4399
:1006500000E09E432E604D68DBF80060AD035D4610
:1006600001D51E4300E09E432E604D68DEF8006019
:10067000ED02754601D51E4300E09E432E604D6895
:10068000AD020E4D2E6801D51E4300E09E432E6044
:10069000641C102CFFF444AFBDE8F88F0004014047
:1006A000000011100010024000000140000801404D
:1006B000000C014000100140001401400C040140F6
:1006C0000AB1016170470904FBE7000001480068B6
:1006D000704700008806002002480168491C01603C
:1006E0007047000088060020074810B5016841F0F7
:1006F00010010160032000F087F8002000F006F8E8
:1007000000F016F8002010BD0020024010B504468D
:1007100000F050F94FF47A71B0FBF1F000F0E8FE10
:1007200000222146501E00F04FF8002010BD0000AE
:100730001D4808B5816941F001018161806900F0BF
:1007400001000090052000F05FF8002211466FF0D4
:100750000B0000F039F8002211466FF00A0000F09B
:1007600033F8002211466FF0090000F02DF8002246
:100770001146501F00F028F800221146101F00F00B
:1007800023F800221146901E00F01EF800221146A8
:10079000501E00F019F80548416821F0E06141F071
:1007A0008061416008BD000000100240000001406F
:1007B00000F01F02012191404009800000F1E0207B
:1007C000C0F8001170470000F0B40E4B1B680C46D7
:1007D000C3F30223C3F10705042D00D90425191D15
:1007E000072901D2002300E0DB1E012606FA05F1ED
:1007F000491E214099409E40761E16403143F0BC70
:1008000001F070BC0CED00E0064900F0070208683A
:100810004FF6FF03184040EA0220034A10430860E5
:10082000704700000CED00E00000FA052DE9F047EC
:10083000DFF8708105460E46D8F8000000F007008A
:10084000B0420CD2D8F8001021F007013143C8F8AB
:100850000010D8F8000000F00700B04277D12878E7
:10086000514C800705D56068A96820F0F000084366
:1008700060602878C00759D06968012001290DD02F
:10088000022929D05FF0020393FAA3F2B2FA82F2AE
:1008900042F02002520904D0226803E04FF40033F2
:1008A000F2E7626A93FAA3F3B3FA83F303F01F0348
:1008B000984002424BD0606820F00300084360601B
:1008C000FFF704FF6968074641F2883001290DD01F
:1008D0000229814617D025E04FF00073D4E700BF0E
:1008E000FFF7F4FEC11B494501D918E08146606855
:1008F000C0F381000128F3D118E000BFFFF7E6FE46
:10090000C11B49450BD86068C0F381000228F5D1AE
:100910000CE000BFFFF7DAFEC11B494502D90320F6
:10092000BDE8F087606810F00C0FF3D1D8F8001024
:10093000404601F00701B1420BD9016821F00701DF
:1009400031430160006800F00700B04201D001208F
:10095000E6E72878400705D56068E96820F4E0609C
:10096000084360602878000706D56068296920F48C
:10097000605040EAC100606000F052F86168F02207
:1009800092FAA2F201F0F001B2FA82F2D140074AE3
:10099000515CC840064908600020FFF7B7FE002000
:1009A000BEE7000000200240001002402A2E00088E
:1009B0008006002001480068704700008006002083
:1009C00008480949006849684FF4E06292FAA2F2C7
:1009D00001F4E061B2FA82F2D140044A515CC840AD
:1009E0007047000080060020001002403A2E0008E8
:1009F00008480949006849684FF4605292FAA2F227
:100A000001F46051B2FA82F2D140044A515CC8400C
:100A10007047000080060020001002403A2E0008B7
:100A2000F0B52DA28AB007CA8DE807002DA103AC4E
:100A30000FC984E80F002F494B682F4803F00C02C0
:100A4000042A02D0082A02D02C480AB0F0BD4FF484
:100A5000701595FAA5F403F47012B4FA84F4E24028
:100A60006E461DF80220DB0333D5CB6A0F2494FABF
:100A7000A4F403F00F03B4FA84F4E34003ACE45CA1
:100A8000CB6ADB0316D5CB6AF02797FAA7F703F0FA
:100A9000F003B7FA87F7C96AFB40AF1297FAA7F7D6
:100AA00001F47061B7FA87F7F9405B1CB0FBF3F013
:100AB000891C4843B0FBF4F095FAA5F350434FF47A
:100AC0005011B3FA83F3D940715C9142BDD1400813
:100AD000BBE70B485043B8E70000040506070809C8
:100AE0000000000D0102030405060708090A0B0CAB
:100AF0000D0E0F100010024040787D0100127A00A8
:100B000000093D002DE9F84F04460078F74DC00775
:100B10004FF0010625D068687704C0F381000128F2
:100B200007D06868C0F3810002281BD16868C00341
:100B300018D597FAA7F0B0FA80F040F020004009ED
:100B400001D0286800E0686A97FAA7F1B1FA81F14C
:100B500001F01F0106FA01F108425ED0A0680028EA
:100B60007BD05AE0A068B0F5803F0BD010B1B0F553
:100B7000A02F11D0286820F480302860286820F445
:100B8000802002E0286840F480302860A06828B304
:100B9000FFF79CFD80460BE0286840F48020286029
:100BA000F0E700BFFFF792FDA0EB0800642870D8C3
:100BB00097FAA7F0B0FA80F040F02000400901D089
:100BC000286800E0686A97FAA7F1B1FA81F101F0AC
:100BD0001F0106FA01F10842E4D01EE0FFF776FD9E
:100BE000804605E0FFF772FDA0EB08006428DED820
:100BF00097FAA7F0B0FA80F040F02000400901D049
:100C0000286800E0686A97FAA7F1B1FA81F101F06B
:100C10001F0106FA01F10842E4D12078B44F8007A1
:100C20004FF002084FF000095AD568684FF0F80BF2
:100C300010F00C0F07D06868C0F3810002281CD1A7
:100C40006868C00319D498FAA8F0B0FA80F040F0B0
:100C50002000400902D0286801E08BE0686A98FA19
:100C6000A8F1B1FA81F101F01F0106FA01F1084281
:100C70002BD0606901287DD127E0606988B396FA9E
:100C8000A6F0B0FA80F047F82060FFF71FFD82461B
:100C900006E018E2FFF71AFDA0EB0A00022886D84A
:100CA00098FAA8F0B0FA80F040F02000400901D096
:100CB000286800E0686A98FAA8F1B1FA81F101F0B9
:100CC0001F0106FA01F10842E4D028689BFAABF252
:100CD000A169B2FA82F220F0F8009140084328603E
:100CE00025E0FFE796FAA6F1B1FA81F147F82190E5
:100CF000FFF7ECFC824605E0FFF7E8FCA0EB0A00FA
:100D00000228CCD898FAA8F0B0FA80F040F0200081
:100D1000400901D0286800E0686A98FAA8F1B1FAA1
:100D200081F101F01F0106FA01F10842E4D12078B7
:100D300000076FD5E069C0B396FAA6F0B0FA80F06C
:100D400007EB8000C0F88064FFF7C0FC824605E036
:100D5000FFF7BCFCA0EB0A000228A0D898FAA8F183
:100D6000B1FA81F141F060014046B6EB511F02D16A
:100D700029680CE072E190FAA0F1B1FA81F141F03A
:100D80006001B0EB511F01D1296A00E0696A98FA4D
:100D9000A8F0B0FA80F000F01F0206FA02F001425B
:100DA000D6D00120FFF796FB34E0FFE796FAA6F1D4
:100DB000B1FA81F107EB8101C1F88094FFF786FC5D
:100DC000824605E0FFF782FCA0EB0A00022898D8D3
:100DD00098FAA8F1B1FA81F141F060014046B6EB12
:100DE000511F01D129680BE090FAA0F1B1FA81F10D
:100DF00041F06001B0EB511F01D1296A00E0696A3E
:100E000098FAA8F0B0FA80F000F01F0206FA02F09B
:100E10000142D7D12078400766D5E86940F080507C
:100E2000E861E869DFF8CCB000F080500090DBF8B2
:100E3000001041F48071CBF80010FFF747FC8246A8
:100E400006E000BFFFF742FCA0EB0A00642884D84C
:100E5000DBF80000C005F5D5206901280AD008B1EB
:100E6000052813D0286A20F001002862286A20F0A3
:100E7000040002E0286A40F001002862206941F283
:100E8000883B90B3FFF722FC82460BE0286A40F0D3
:100E900004002862EEE700BFFFF718FCA0EB0A0190
:100EA000594594D898FAA8F1B1FA81F141F040017E
:100EB0004046B6EB511F01D129680BE090FAA0F132
:100EC000B1FA81F141F04001B0EB511F01D1296A23
:100ED00000E0696A98FAA8F0B0FA80F000F01F020A
:100EE00006FA02F00142D7D032E005E000100240DD
:100EF0000000424200700040FFF7E8FB824605E038
:100F0000FFF7E4FBA0EB0A015945A0D898FAA8F135
:100F1000B1FA81F141F040014046B6EB511F01D1D9
:100F200029680BE090FAA0F1B1FA81F141F040019B
:100F3000B0EB511F01D1296A00E0696A98FAA8F064
:100F4000B0FA80F000F01F0206FA02F00142D7D199
:100F5000E16AA1B36868C00307D56868C0F381007F
:100F6000022802D1E86AC00378D44FF080600229D9
:100F70000FD0E96A21F48031E96290FAA0F0B0FA6A
:100F800080F047F82090FFF7A1FB80464FF0006A01
:100F90006CE02968C90005D5E96A626B01F0F001CF
:100FA00091425BD1834690FAA0F0B0FA80F047F806
:100FB0002090FFF78BFB82464FF0006806E06AE066
:100FC000FFF784FBA0EB0A0064287CD898FAA8F00D
:100FD000B0FA80F040F02000400901D0286800E01D
:100FE000686A98FAA8F1B1FA81F101F01F0106FAD6
:100FF00001F10842E4D1E86A616B20F0F000084397
:10100000E862E86A216B20F470600843E8629BFAAA
:10101000ABF0B0FA80F047F82060FFF757FB82464C
:1010200006E000BFFFF752FBA0EB0A0064284AD895
:1010300098FAA8F0B0FA80F040F02000400901D002
:10104000286800E0686A98FAA8F1B1FA81F101F025
:101050001F0106FA01F10842E4D01CE099E000BF4C
:10106000FFF734FBA0EB080064282CD89AFAAAF00A
:10107000B0FA80F040F02000400901D0286800E07C
:10108000686A9AFAAAF1B1FA81F101F01F0106FA31
:1010900001F10842E4D1206AA0B36968C1F381017B
:1010A000022976D04FF080714FF0007B02280BD0E0
:1010B00091FAA1F1B1FA81F147F82190FFF706FB0F
:1010C00007465C466EE06AE091FAA1F04A46B0FA43
:1010D00080F08946BA4647F82020FFF7F7FA8046A5
:1010E0005F4605E0FFF7F2FAA0EB0800022856D8A9
:1010F00097FAA7F0B0FA80F040F02000400902D043
:10110000286801E063E0686A97FAA7F1B1FA81F113
:1011100001F01F0106FA01F10842E3D1606AB0F55F
:10112000803F09D1E86A61680843E862E86AE168DB
:1011300020F00F000843E862D4E909010843696818
:1011400021F474110843686099FAA9F0B0FA80F0AC
:101150004AF82060FFF7BAFA044604E0FFF7B6FA4F
:10116000001B02281BD897FAA7F0B0FA80F040F0D5
:101170002000400901D0286800E0686A97FAA7F1CA
:10118000B1FA81F101F01F0106FA01F10842E5D040
:101190001DE01EE0FFF79AFAC01B022802D90320C7
:1011A000BDE8F88F94FAA4F0B0FA80F040F0200087
:1011B000400901D0286800E0686A94FAA4F1B1FA05
:1011C00081F101F01F0106FA01F10842E2D100208D
:1011D000E6E70120E4E7704790F85100704708B552
:1011E00001684A68D243520609D48A68D243D207BA
:1011F00005D18A68D243520601D5816C08E04A685D
:10120000D243120608D48A68D243920704D4C16C30
:1012100001B05DF804EB08474A68D243920635D422
:101220008A68D243D20606D4426D42F00202426579
:101230006FF010028A6001688A68D243920609D46E
:10124000426D42F0010242658A680A6822F040025B
:101250000A60009201688A68D24352060AD490F864
:101260005120122A06D0426D42F004024265CA683B
:101270008A680092426D002A08D04A6822F0E00293
:101280004A60012180F85110FFF7A5FF08BD00005A
:1012900010B5040003D094F8510010B104E001200F
:1012A00010BD204600F038F8022084F85100206874
:1012B000016821F040010160D4E901010843D4E94B
:1012C00003121143084361690843218B01F4007143
:1012D0000843E1690843216A0843A16A0843216879
:1012E0000860A069042101EA1040616A084321688E
:1012F00048602168E06A08612068C16921F40061E2
:10130000C1610449002008706065012084F8510023
:10131000002010BD8406002010B50068184986B072
:1013200088422AD11748C16941F40041C161C069AE
:10133000154C00F4004004904FF4A050009002209F
:1013400001900320039069462046FFF7DBF8002157
:10135000E014CDE90001029169462046FFF7D2F87A
:101360000A48416841F08051416002221146332011
:10137000FFF72AFA3320FFF71BFA06B010BD000072
:10138000003C0040001002400010014000000140FD
:101390002DE9F843044690F851009846012870D191
:1013A00039B332B394F8500001286AD0012684F88A
:1013B0005060122084F85100002565652163A286E3
:1013C000E286E564A564A563A587E587A06A77033F
:1013D000B84209D12068016821F4005101602068F9
:1013E000016841F400510160A068B0F5004F03D0DE
:1013F00007E00120BDE8F8832068016841F48041DE
:10140000016020680168490603D4016841F0400189
:101410000160E0680028606804D0D8B1E08E01283F
:1014200018D021E010B1E08E012808D1206B411CBA
:10143000216321680078C860E08E401EE0860004C9
:10144000000C1FD0434600220221204600F062FE1D
:10145000A8B9EBE7206B21680088C860206B801C6E
:101460002063E08E401EE0860004000C0AD0434654
:1014700000220221204600F04DFE0028EAD0032081
:10148000B8E726E0A06AB84204D12068016841F4B8
:1014900080510160434600220221204600F03AFEBE
:1014A00030B9434601228021204600F033FE20B1AE
:1014B000606D40F010006065E1E7A06818B9206831
:1014C000C1688068009084F8516084F85050002012
:1014D00090E702208EE74FF0E0210428086903D04E
:1014E00020F004000861704740F00400FAE77047FC
:1014F00010B5401EB0F1807F01D3012010BD4FF028
:10150000E02460610F21601700F0ECFD0020A06175
:1015100007202061002010BD10B5FFF7E8FF10BDC7
:101520007047704730B590F83820012A20D001224A
:1015300080F83820022380F8393003685C6824F092
:1015400070045C6003685C680D682C435C60036831
:101550009C6824F080049C6003689C6849680C4384
:101560009C6080F83920002180F83810084630BD92
:10157000022030BD10B5040003D094F8390010B13A
:1015800007E0012010BD002084F83800204600F05C
:101590000DF8022084F83900211D206800F0D2FEE9
:1015A000012084F83900002010BD000008B5114A60
:1015B00001681148914211D1816941F40061816152
:1015C0008069002200F40060009001211920FFF7DB
:1015D000FBF8BDE808401920FFF7EAB8B1F1804FE9
:1015E00007D1C16941F00101C161C06900F001008A
:1015F000009008BD002C0140001002400168CA683C
:1016000042F00102CA600068016841F00101016016
:101610000020704770B5044690F83800012817D0B4
:10162000012584F83850022084F839002068826847
:1016300022F0770222F47F4282600868502837D077
:101640000DDC202859D005DC88B3102841D151E0A9
:10165000022070BD302853D040283AD13FE06028A6
:101660002ED070280BD0B0F5805F03D0B0F5005FAE
:101670002FD110E02068816821F0070115E0CB68C8
:10168000D1E90121206800F097FE2168886840F0C8
:10169000770088601DE0CB68D1E90121206800F067
:1016A0008BFE2068816841F48041816011E01EE07A
:1016B000CA684968206800F091FE5021206806E061
:1016C000CA684968206800F09AFE6021206800F02E
:1016D0007DFE84F83950002084F8380070BDCA6857
:1016E0004968206800F07AFE40212068EFE7002179
:1016F0002068ECE710212068E9E720212068E6E770
:1017000030212068E3E7704770B50446006801693E
:101710004FF00005C943890715D4C168C94389073B
:1017200011D4E91E016101202076206880698007BC
:10173000204602D0FFF7E7FF04E000F098F82046CB
:1017400000F096F8257620680169C943490717D447
:10175000C168C943490713D46FF004010161022035
:1017600020762068806910F4407F204602D0FFF781
:10177000CAFF04E000F07BF8204600F079F82576F7
:1017800020680169C943090716D4C168C94309071C
:1017900012D46FF008010161042020762068C0692E
:1017A0008007204602D0FFF7AEFF04E000F05FF8AC
:1017B000204600F05DF8257620680169C943C90616
:1017C00017D4C168C943C90613D46FF01001016171
:1017D000082020762068C06910F4407F204602D09F
:1017E000FFF791FF04E000F042F8204600F040F8D7
:1017F000257620680169C943C90708D1C168C94372
:10180000C90704D1891E0161204600F032F8206822
:101810000169C943090609D4C168C943090605D449
:101820006FF0800101612046FFF77AFE20680169B0
:10183000C943490609D4C168C943490605D46FF0B4
:1018400040010161204600F015F820680169C94394
:1018500089060BD4C168C943890607D46FF02001FB
:1018600001612046BDE87040FFF75BBE70BD704768
:1018700070477047704770B5040004D094F8390081
:10188000002510B106E0012070BD84F838502046D4
:1018900000F020F8022084F839002068C16821F4A3
:1018A0000051C160204600F0BDFD2068016921F4AF
:1018B000904101612068416921F02A01416120685D
:1018C000C16841F40051C160E563012084F839002A
:1018D000002070BD10B50068134986B0884221D140
:1018E0001248C16941F40031C161C069104C00F473
:1018F00000300490202000900220019003200390EB
:1019000069462046FEF7FEFD00214020CDE900019A
:10191000029169462046FEF7F5FD0648416841F010
:101920000801416006B010BD0044004000100240B4
:1019300000140140000001402DE9F047044690F8F2
:10194000390099460D46012801D0222858D12DB3DF
:1019500022B394F83800012852D0012684F8386068
:101960000027E76394F8390022281AD05FF01200AC
:1019700084F83900A284E2844FF48058E08C4B460E
:10198000401EE084A0684FF0000240454FF0800107
:10199000204613D100F0FEFD08BB04E00120BDE8A5
:1019A000F0873220E4E728882168C0F30800486007
:1019B000206908B16D1C08E0AD1C06E000F0EAFDEE
:1019C00068B9216815F8010B4860E08C0028D5D172
:1019D0004B4600224021204600F0DCFD08B10320E8
:1019E000DDE794F83900322806D084F8396000BF6A
:1019F00084F838700020D2E7222084F83900F7E715
:101A00000220CCE7FEE770B50024064621462046BA
:101A100000F062F82C2000F0CBF94FF496353046F8
:101A200000F04AFA641CAC42F9D370BD203AD2B23D
:101A3000034B02EB420203EB021200F019B8000064
:101A4000422E00082DE9F04100250E4607462C469F
:101A500007E021463846FFF7E9FF10346D1CA4B2B9
:101A6000761C3278002A01D0142DF2D3BDE8F08123
:101A70002DE9F04791468A460026044600F02CF8EE
:101A8000DFF8408001272C2000F092F95FF000057C
:101A900039F8160007FA05F10842404601D140889E
:101AA00000E0008800F008FA6D1C102DF0D3641CD3
:101AB000A4B25146204600F00FF8761C182EE2D34F
:101AC000BDE8F0878C06002001B5BDF80000014993
:101AD000488008BD8C06002070B505460C462B20BA
:101AE00000F066F9280A00F0A5F9E8B200F0A2F9C2
:101AF0002A2000F05DF9200A00F09CF9E0B2BDE870
:101B0000704000F097B9000001B5BDF80000014930
:101B1000088008BD8C06002070B5A44D01228021EC
:101B20002846FEF7CDFD3220FEF7D4FC012000F060
:101B30003FF90520FEF7CEFC282000F039F9CF2030
:101B400000F036F9002000F075F9832000F072F9FA
:101B5000302000F06FF9ED2000F02AF9642000F049
:101B600069F9032000F066F9122000F063F9812082
:101B700000F060F9E82000F01BF9852000F05AF928
:101B8000012000F057F9792000F054F9CB2000F043
:101B90000FF9392000F04EF92C2000F04BF900200D
:101BA00000F048F9342000F045F9022000F042F935
:101BB000F72000F0FDF8202000F03CF9EA2000F0CA
:101BC000F7F8002000F036F9002000F033F9C020CB
:101BD00000F0EEF8262000F02DF9C12000F0E8F822
:101BE000112000F027F9C52000F0E2F8352000F0C0
:101BF00021F93E2000F01EF9C72000F0D9F8BE20E0
:101C000000F018F9362000F0D3F8A82000F012F9FF
:101C10003A2000F0CDF8552000F00CF9B12000F08A
:101C2000C7F8002000F006F91B2000F003F9F220AD
:101C300000F0BEF8082000F0FDF8262000F0B8F80B
:101C4000012000F0F7F8E02000F0B2F81F2000F0CB
:101C5000F1F81A2000F0EEF8182000F0EBF80A2056
:101C600000F0E8F80F2000F0E5F8062000F0E2F8B8
:101C7000452000F0DFF8872000F0DCF8322000F08B
:101C8000D9F80A2000F0D6F8072000F0D3F8022097
:101C900000F0D0F8072000F0CDF8052000F0CAF8D9
:101CA000002000F0C7F8E12000F082F8002000F0EA
:101CB000C1F8252000F0BEF8272000F0BBF8052071
:101CC00000F0B8F8102000F0B5F8092000F0B2F8E4
:101CD0003A2000F0AFF8782000F0ACF84D2000F08A
:101CE000A9F8052000F0A6F8182000F0A3F80D20B0
:101CF00000F0A0F8382000F09DF83A2000F09AF8A3
:101D00001F2000F097F82A2000F052F8002000F081
:101D100091F8002000F08EF8012000F08BF83F20B1
:101D200000F088F82B2000F043F8002000F082F843
:101D3000002000F07FF8002000F07CF8EF2000F099
:101D400079F8B72000F034F8072000F073F8B620D7
:101D500000F02EF80A2000F06DF8C22000F06AF8BA
:101D6000272000F067F8002000F064F8112000F050
:101D70001FF86420FEF7AEFB2C2000F019F80024B9
:101D80004FF49636002000F097F8641CB442F9DB5B
:101D9000292000F00DF86420FEF79CFB2846BDE8E2
:101DA000704001228021FEF78BBC0000001401402E
:101DB00071B585B04FF4A050009001200190032030
:101DC0001A4C039069462046FEF79CFB0022A114A2
:101DD0002046FEF775FC2515002229462046FEF711
:101DE0006FFCA615002231462046FEF769FC012251
:101DF00029462046FEF764FC002229462046FEF7CD
:101E00005FFC0B48FFF788FA0A23012205A908485E
:101E1000FFF7BEFA0648FFF7DFF91228FAD00122D1
:101E200031462046FEF74CFC06B070BD0010014064
:101E3000E406002071B585B04FF4A0500090012059
:101E4000019003201A4C039069462046FEF75AFB86
:101E5000012211032046FEF733FC251500222946F6
:101E60002046FEF72DFCA615002231462046FEF73F
:101E700027FC012229462046FEF722FC00222946A3
:101E80002046FEF71DFC0B48FFF746FA0A23012205
:101E900005A90848FFF77CFA0648FFF79DF91228C4
:101EA000FAD0012231462046FEF70AFC06B070BD8A
:101EB00000100140E406002010B50446000AFFF7B8
:101EC000B9FFE0B2BDE81040FFF7B4BF2DE9F04F15
:101ED000574885B0816941F040018161816901F015
:101EE00040010491816941F008018161816901F03B
:101EF00008010491816941F020018161816901F04B
:101F000020010491816941F010018161816901F032
:101F100010010491816941F004018161806900240C
:101F200000F0040004901820CDE90004DFF804B1AB
:101F3000694658460294FEF7E5FA4FF4F078012519
:101F4000CDE900850226694658460396FEF7DAFA7F
:101F5000394F1F20CDE90007694602943748FEF744
:101F6000D1FA4FF47840CDE90007DFF8D4A06946F4
:101F700002945046FEF7C6FA2F02DFF8C890CDE96A
:101F80000075694648460396FEF7BCFACDE9007431
:101F900069462D480294FEF7B5FA8020CDE9000588
:101FA000694603965046FEF7ADFA00224146584670
:101FB000FEF786FB002239464846FEF781FB0022E9
:101FC00080215046FEF77CFB002211460620FEF7DA
:101FD000FBFB0620FEF7ECFB002211460720FEF774
:101FE000F3FB0720FEF7E4FB002211460820FEF772
:101FF000EBFB0820FEF7DCFB002211460920FEF770
:10200000E3FB0920FEF7D4FB002211460A20FEF76D
:10201000DBFB0A20FEF7CCFB002202212820FEF782
:10202000D3FB2820FEF7C4FB05B0BDE8F08F00000D
:10203000001002400018014000001110000C014087
:102040000014014000100140000801400E4810B586
:102050000C4901604FF48271416000218160C160D0
:102060004FF400720161C0E90512C1610162416271
:1020700081620A21C162FFF70BF9002800D0FEE758
:1020800010BD0000003C0040E406002010B51348DD
:1020900086B01149016047210024C0E9011440F2D3
:1020A000E731C0E903144461FFF764FA00B1FEE7C9
:1020B0004FF48050009069460848FFF7ABFA00B132
:1020C000FEE7049404A905480594FFF72BFA0028BD
:1020D00000D0FEE706B010BD002C01403C070020F8
:1020E000FEE770470907090E002806DA00F00F0026
:1020F00000F1E02080F8141D704700F1E02080F826
:1021000000147047704700000148FFF768B80000EE
:10211000E40600202DE9F0471D4690460E46044691
:10212000FEF7D4FA07465FEA08004FF000084FF4C4
:10213000005A4FF0010926D034E0681C23D025B1A5
:10214000FEF7C4FAC01BA8421DD92068416821F0DF
:10215000E00141602068016821F040010160A06A4F
:10216000504509D12068016821F4005101602068C0
:10217000016841F40051016084F8519084F8508066
:102180000320BDE8F0872068806836EA0000D4D1DB
:102190000DE0681C06D0002DD7D0FEF797FAC01BC3
:1021A000A842D2D82068806836EA0000F1D000202A
:1021B000E7E7704710B5FEF78FFABDE81040FFF76C
:1021C000ABB9000030B593B0012528040421CDE956
:1021D00002010224CDE908400095019005954FF4D5
:1021E000E010CDE90A044FF4C0600C9040200D903F
:1021F0006846FEF787FC00B1FEE70F20CDE90E042C
:1022000000204FF48061CDE91001129002210EA848
:10221000FEF70CFB00B1FEE7FEF7CCFB4FF47A7142
:10222000B0FBF1F0FFF764F90420FFF754F94FF029
:10223000805090FAA0F00649B0FA80F041F82050A2
:1022400000221146501EFEF7BFFA13B030BD000049
:10225000000042421048016841F0010101604168FC
:102260000E4A1140416001680D4A11400160016849
:1022700021F480210160416821F4FE014160016880
:1022800021F0A05101604FF47F0181600021C16203
:102290000449C00308607047001002400000FFF0CE
:1022A000FFFFF6FE08ED00E010B51F48FFF72CFA1F
:1022B0001E480168491C01601D480268521C0260EA
:1022C0004268521C42608268521C8260C268521C82
:1022D000C2600269521C02614FF47A70B1FBF0F2E5
:1022E00000FB1212134892B90268134C521C026090
:1022F000124A23681BB11268032A06D007E013684C
:10230000032B04D10423136001E05B1E23604EF60F
:102310006022B1FBF2F10A4A116001683C2901D147
:102320000021016010BD00003C0700207406002061
:10233000A8060020780600200800002004000020E5
:102340007C060020F0B50268174B184C184D194E4A
:102350004FF08047984207D0B84205D0A04203D042
:10236000A84201D0B04204D122F0700C4A6842EA7F
:102370000C02984207D0B84205D0A04203D0A84230
:1023800001D0B04203D122F44074CA6822430260F3
:102390008A68C2620A688262984201D1096901634F
:1023A00001214161F0BD0000002C0140000400400B
:1023B00000080040000C004010B5846842EA032287
:1023C00024F47F440A432243826010BD826822F0D5
:1023D00070020A4342F007018160704710B5036A3A
:1023E000046A24F001040462846924F0F00444EADD
:1023F000021423F00A020A438461026210BD10B580
:10240000036A23F0100303628369046A23F47043B0
:1024100043EA023224F0A00343EA0111826101621F
:1024200010BD00002DE9F041044600680169E26832
:1024300021F44051114301612169A0680843616999
:1024400008432168CA6841F20C639A430243CA6098
:1024500020684169A26921F44071114341614C49EE
:1024600020686425322688423CD1FEF7C1FA00EB91
:10247000C00101EB001061688900B0FBF1F7FEF7C5
:10248000B7FA00EBC00101EB00106168B0468900AB
:10249000B0FBF1F0B0FBF5F06FF01801484307EB2B
:1024A000800106EB0110B0FBF5F000F0F006FEF73E
:1024B0009FFA00EBC00101EB001061688900B0FBDE
:1024C000F1F0B0FBF5F006EB0016FEF791FA00EB29
:1024D000C00101EB001061688900B0FBF1F7FEF765
:1024E00087FA3BE0FEF76CFA00EBC00101EB00104D
:1024F00061688900B0FBF1F7FEF762FA00EBC001FA
:1025000001EB00106168B0468900B0FBF1F0B0FB50
:10251000F5F06FF01801484307EB800106EB01105E
:10252000B0FBF5F000F0F006FEF74AFA00EBC00150
:1025300001EB001061688900B0FBF1F0B0FBF5F031
:1025400006EB0016FEF73CFA00EBC00101EB0010B1
:1025500061688900B0FBF1F7FEF732FA00EBC001C9
:1025600001EB001061688900B0FBF1F0B0FBF5F001
:102570006FF01801484307EB800108EB0110B0FB36
:10258000F5F0216800F00F0030448860BDE8F0816C
:10259000003801402DE9F0471D4690460E4604469E
:1025A000FEF794F807465FEA08004FF000094FF085
:1025B000010808D030E0681C05D095B1FEF786F818
:1025C000C01BA8420DD82068006836EA0000F2D18E
:1025D00027E0681C20D025B1FEF778F8C01BA84280
:1025E0001AD92068C16821F08001C1602068C168E3
:1025F00021F02001C1602068C16821F48071C160B0
:102600002068416921F00101416184F8398084F832
:1026100038900320BDE8F0872068006836EA0000A3
:10262000D7D00020F6E7FEE70FB4084B10B504A999
:1026300002AA039800F01CF8044602A9002000F04A
:10264000C1F8204610BC5DF814FB0000C527000847
:1026500002E008C8121F08C1002AFAD1704770476B
:10266000002001E001C1121F002AFBD170470000C9
:102670002DE9FF4F89B09B460446002506E025283A
:102680000BD05A460B999047641C6D1C207800288B
:10269000F5D10DB02846BDE8F08F0027B8460122DD
:1026A000474900E0074314F8013F203B02FA03F0DA
:1026B0000842F7D120782E2819D114F8010F47F0DD
:1026C00004072A280ED06FF02F022078A0F13001E5
:1026D00009290CD808EB880102EB410100EB010845
:1026E000641CF2E70A98641C50F8048B0A90207866
:1026F0000028CED0642808D0692806D075281ED0BE
:102700005A460B9990476D1C58E00A994FF00A09F8
:1027100001C90A91002802DA40422D2102E0390560
:1027200004D52B218DF82010012103E0F90704D0F6
:102730002021F7E78A4608AE0DE00021FAE70A9962
:102740004FF00A0901C90A91F7E74946FDF735FD3F
:10275000303106F8011D0028F7D1ADEB060000F17D
:102760002009780701D44FF00108C84502DDA8EB25
:10277000090000E000208046002706E008A85A462D
:10278000C05D0B9990476D1C7F1C5745F6DB04E03C
:1027900030205A460B9990476D1CB8F10001A8F102
:1027A0000108F5DC05E016F8010B5A460B99904735
:1027B0006D1CB9F10001A9F10109F4DC641C65E7A5
:1027C000092801000A68531C0B6010707047000054
:1027D0002DE9F047DFF82091484D0024D9F800009A
:1027E000AE1FA5F1120709F13C08012816D1D8F84F
:1027F0000000012812D10F23298830781A4600F0F2
:10280000FFF8C8F800401323298830781A4600F0F2
:1028100095F8C9F800403868401C3860D9F80400C1
:10282000012816D1D8F80400012812D10F23698895
:1028300070781A4600F0E4F8C8F804401323698859
:1028400070781A4600F07AF8C9F804403868401CDD
:102850003860D9F80800012816D1D8F808000128F6
:1028600012D10F23A988B0781A4600F0C9F81323B3
:10287000A988B0781A4600F061F8C9F80840C8F88D
:1028800008403868401C3860D9F80C00012816D17F
:10289000D8F80C00012812D10F23E988F0781A46E5
:1028A00000F0AEF8C8F80C401323E988F0781A4617
:1028B00000F044F8C9F80C403868401C3860D9F87A
:1028C0001000012816D1D8F81000012812D10F23CA
:1028D000298930791A4600F093F813232989307931
:1028E0001A4600F02BF8C8F81040C9F810403868B4
:1028F000401C3860BDE8F0879406002012000020DC
:102900002DE9F04788460446914603EB08061F1957
:102910000FE045460AE0A9B2A0B2FFF7DDF82C208F
:10292000FFF746FA4846FFF7C7FA6D1CAE42F2DAE7
:10293000641CA742EDDABDE8F08700002DE9FF5FD7
:102940008146002503EB430623E001980024284438
:10295000A0F1240802984FF0030ADFF840B000EB22
:10296000400713E094FBFAF195FBFAF001EB41020A
:1029700002EB01120BEB4201032331F8102004EBB0
:10298000090041462438FFF7BBFFE41CA742E9DCFD
:10299000ED1CAE42D9DCBDE8FF9F0000A003002083
:1029A0002DE9FF5F8146002503EB430621E00198F6
:1029B00000242844A0F11E0802984FF0030ADFF813
:1029C0003CB000EB400711E094FBFAF195FBFAF004
:1029D000C1EB01120BEB4201032331F8102004EB91
:1029E000090041461E38FFF78BFFE41CA742EBDCD1
:1029F000ED1CAE42DBDCBDE8FF9F00001C000020A8
:102A00002DE9FF5F8146002503EB430621E0019895
:102A100000242844A0F11E0802984FF0030ADFF8B2
:102A20003CB000EB400711E094FBFAF195FBFAF0A3
:102A3000C1EB01120BEB4201032331F8102004EB30
:102A4000090041461E38FFF75BFFE41CA742EBDCA0
:102A5000ED1CAE42DBDCBDE8FF9F0000DE01002084
:102A60002DE9F05FDFF8C491714D0024D9F8000022
:102A70004FF4FA674FF00108A9F1140BA9F1280AE5
:102A8000AE1F98B9FDF780FB90FBF7F107FB110033
:102A900000F57A70CBF80000CAF800400F232988AF
:102AA00030781A46FFF77CFFC9F80080DAF800108A
:102AB000DBF80800814207D3C9F8004013232988B6
:102AC00030781A46FFF73AFFFFF782FED9F8040084
:102AD00098B9FDF759FB90FBF7F107FB110000F5E2
:102AE0007A70CBF80400CAF804400F236988707824
:102AF0001A46FFF755FFC9F80480DAF80410DBF82E
:102B00000C00814207D3C9F8044013236988707808
:102B10001A46FFF713FFD9F8080098B9FDF734FB00
:102B200090FBF7F107FB110000F57A70CBF8080075
:102B3000CAF808400F23A988B0781A46FFF730FF7B
:102B4000C9F808803948DA4628388168DBF8080077
:102B5000814207D3C9F808401323A988B0781A46E0
:102B6000FFF7ECFEFFF734FED9F80C00A0B9FDF733
:102B70000BFB90FBF7F107FB110000F57A70CAF828
:102B80000C002A480F2328381A46C460E988F078D8
:102B9000FFF706FFC9F80C80DFF890B0DAF80C00F8
:102BA000ABF1280BDBF80C10814207D3C9F80C40BD
:102BB0001323E988F0781A46FFF7C0FEFFF708FEF6
:102BC000D9F8100098B9FDF7DFFA90FBF7F107FB91
:102BD000110000F57A70CAF81000CBF810400F23EE
:102BE000298930791A46FFF7DBFEC9F81080DBF837
:102BF0001010DAF81000814207D3C9F810401323EF
:102C0000298930791A46FFF799FEFFF7E1FD084858
:102C100008A11238836802680B48FFF705FDBDE87C
:102C2000F05F0949C020FEF70DBF0000D00600206C
:102C30001200002073636F72653A25642074696D19
:102C400065203A2564202000F407002070B5114C5F
:102C50001323A51F218828781A46FFF76FFE132338
:102C6000618868781A46FFF769FE1323A188A8785F
:102C70001A46FFF763FE1323E188E8781A46FFF748
:102C80005DFE21892879BDE8704013231A46FFF7BD
:102C900055BE00001200002086B0FDF725FDFFF7AD
:102CA00091FAFFF713F9FFF7D1F941483F490024A2
:102CB00001604FF4E131C0E901140C21C460C0E9A6
:102CC00004418461C461FEF7D6FD00B1FEE73848D7
:102CD0004FF080413C38C0E900148460C460046156
:102CE000FEF748FC00B1FEE74FF4805000903048FA
:102CF00069463C38FEF78EFC00B1FEE72C48049490
:102D000004A93C380594FEF70DFC00B1FEE7FFF77F
:102D1000BDF927487838FEF771FCFEF7FDFE4FF647
:102D2000FF752846FEF7F0FE0020FEF7CDFE214C91
:102D3000606870B920A1A820FEF784FE01206060C1
:102D40000020FEF7E1FE46F22320FEF7BDFE3C2008
:102D5000A0606068022802D0032804D005E0FFF7D5
:102D600075FF03206060FFF77BFE6068042817D0C2
:102D70000528DDD12846FEF7C7FE0020FEF7A4FE99
:102D80000B4812A140302268FFF74EFC13A16020CF
:102D9000FEF758FE064978204031FEF753FEC7E79C
:102DA0000020FEF730FE05206060E3E700440040AD
:102DB000B407002000000020202020202050726551
:102DC000657320616E79206B6579000020202020DA
:102DD0002073636F7265203A256420002020202034
:102DE0002047616D65204F7665722021210000002B
:102DF000507265737320300D0000000050726573CF
:102E00007320310D00000000507265737320320D85
:102E100000000000507265737320330D0000000045
:102E2000507265737320340D000000000000000034
:102E30000000010203040607080900000000010267
:102E4000030400000000000000000000000000007B
:102E50000000000000000000000000000000000072
:102E60000000000000000000000000000000000062
:102E7000000000008001800180018001800180014C
:102E800080018001800180018001800180010000BB
:102E90000000800180010000000000000000000030
:102EA000000000000000CC00CC00CC00CC00CC0026
:102EB000CC00000000000000000000000000000046
:102EC0000000000000000000000000000000000002
:102ED0000000000000000000000000000000600C86
:102EE000600C600C30063006FE1FFE1F30063807EF
:102EF0001803FE1FFE1F180318038C018C018C01A0
:102F0000000000008000E003F80F9C0E8C1C8C1861
:102F10008C009800F801E007800E801C8C188C183B
:102F20009C18B80CF00FE003800080000000000047
:102F300000000000000000000E181B0C110C110610
:102F40001106110311039B018E01C038C06C60444F
:102F50006044304430441844186C0C3800000000C1
:102F600000000000E001F0033807180618063003DF
:102F7000F001F000F8009C310E33061E061C061C02
:102F8000063FFC73F021000000000000000000007C
:102F90000000000000000C000C000C000C000C00F5
:102FA0000C00000000000000000000000000000015
:102FB0000000000000000000000000000000000011
:102FC00000000000000200038001C000C00060009B
:102FD0006000300030003000300030003000300041
:102FE000300060006000C000C000800100030002EB
:102FF0000000000020006000C0008001800100038C
:103000000003000600060006000600060006000693
:1030100000060003000380018001C0006000200062
:103020000000000000000000000000000000C000E0
:10303000C000D806F807E0013003380700000000A0
:103040000000000000000000000000000000000080
:1030500000000000000000000000000000008001EF
:103060008001800180018001FC3FFC3F80018001E4
:1030700080018001800100000000000000000000CD
:103080000000000000000000000000000000000040
:103090000000000000000000000000000000000030
:1030A000000000008001800100010001800000009C
:1030B0000000000000000000000000000000000010
:1030C00000000000000000000000E007E007000032
:1030D00000000000000000000000000000000000F0
:1030E00000000000000000000000000000000000E0
:1030F00000000000000000000000000000000000D0
:1031000000000000C000C00000000000000000003F
:1031100000000000000C000C000600060006000382
:10312000000300038003800180018001C000C00013
:10313000C00060006000000000000000000000000F
:1031400000000000E003F007380E180C0C180C18F3
:103150000C180C180C180C180C180C180C18180C4F
:10316000380EF007E003000000000000000000003F
:103170000000000000018001C001F00198018801F9
:103180008001800180018001800180018001800137
:1031900080018001800100000000000000000000AC
:1031A00000000000E003F80F180C0C180C180018B1
:1031B0000018000C000600038001C0006000300011
:1031C0001800FC1FFC1F00000000000000000000B1
:1031D00000000000E001F807180E0C0C0C0C000CAD
:1031E0000006C003C007000C001800180C180C18CB
:1031F000180CF807E00300000000000000000000C9
:1032000000000000000C000E000F000F800DC00C2D
:10321000600C600C300C180C0C0CFC3FFC3F000CDC
:10322000000C000C000C000000000000000000007A
:1032300000000000F80FF80F180018000C00EC0355
:10324000FC071C0E001C0018001800180C181C0CA1
:10325000180EF807E0030000000000000000000066
:1032600000000000C007F00F381C181818000C00F0
:10327000CC03EC0F3C0E1C1C0C180C180C18181C62
:10328000380EF007E003000000000000000000001E
:1032900000000000FC1FFC1F000C000600060003DD
:1032A00080038001C001C000E00060006000700089
:1032B000300030003000000000000000000000007E
:1032C00000000000E003F007380E180C180C180C72
:1032D0003806F007F007180C0C180C180C180C180E
:1032E000380CF80FE00300000000000000000000B0
:1032F00000000000E003F007380E1C0C0C180C183E
:103300000C181C1C381EF81BE0190018000C000CCF
:103310001C0EF807F0010000000000000000000093
:10332000000000000000000000000000000080011C
:10333000800100000000000000000000000000000C
:10334000000080018001000000000000000000007B
:1033500000000000000000000000000000008001EC
:1033600080010000000000000000000000000000DC
:1033700000008001800100010001800000000000C9
:10338000000000000000000000000000000000003D
:1033900000000010001C800FE003F8001800F80087
:1033A000E003800F001C001000000000000000007F
:1033B000000000000000000000000000000000000D
:1033C0000000F81F000000000000F81F00000000CF
:1033D00000000000000000000000000000000000ED
:1033E00000000000000000000000000000000000DD
:1033F000000008003800F001C007001F0018001F7F
:10340000C007F001380008000000000000000000C4
:1034100000000000E003F80F180C0C180C1800183E
:10342000000C000600038001C000C000C0000000C6
:103430000000C000C000000000000000000000000C
:10344000000000000000E00718180420C229224AEA
:10345000114409440944094409221113E20C0240B1
:1034600004201818E0070000000000000000000021
:103470000000000080038003C006C006C006600C88
:10348000600C301830183018F83FF83F1C700C6092
:103490000C6006C006C00000000000000000000034
:1034A00000000000FC03FC0F0C0C0C180C180C188E
:1034B0000C0CFC07FC0F0C180C300C300C300C30D2
:1034C0000C18FC1FFC0700000000000000000000BA
:1034D00000000000C007F01F38381C300C70066078
:1034E00006000600060006000600060006600C70D6
:1034F0001C30F01FE007000000000000000000008A
:1035000000000000FE03FE0F060E06180618063027
:10351000063006300630063006300630061806182B
:10352000060EFE0FFE030000000000000000000079
:1035300000000000FC3FFC3F0C000C000C000C00E5
:103540000C00FC1FFC1F0C000C000C000C000C00FD
:103550000C00FC3FFC3F00000000000000000000E9
:1035600000000000F83FF83F18001800180018008D
:103570001800F81FF81F180018001800180018008D
:1035800018001800180000000000000000000000F3
:1035900000000000E00FF83F3C780E6006E007C036
:1035A0000300030003FE03FE03C007C006C00EC0F5
:1035B0003CF0F83FE00F00000000000000000000B9
:1035C000000000000C300C300C300C300C300C3093
:1035D0000C30FC3FFC3F0C300C300C300C300C300D
:1035E0000C300C300C300000000000000000000027
:1035F00000000000800180018001800180018001C5
:1036000080018001800180018001800180018001B2
:103610008001800180010000000000000000000027
:103620000000000000060006000600060006000676
:10363000000600060006000600060006180618062A
:103640003807F003E0010000000000000000000067
:103650000000000006300618060C06060603860168
:10366000C60066007600DE008E0106030606060C24
:103670000618063006600000000000000000000090
:1036800000000000180018001800180018001800AA
:10369000180018001800180018001800180018006A
:1036A0001800F81FF81F00000000000000000000D4
:1036B000000000000EE01EF01EF01EF036D836D8D6
:1036C00036D836D866CC66CC66CCC6C6C6C6C6C6A4
:1036D000C6C686C386C300000000000000000000CC
:1036E000000000000C301C303C303C306C306C3042
:1036F000CC30CC308C310C330C330C360C360C3CCB
:103700000C3C0C380C3000000000000000000000F1
:1037100000000000E007F81F1C380E70066003C0B0
:1037200003C003C003C003C003C003C006600E7023
:103730001C38F81FE0070000000000000000000037
:1037400000000000FC0FFC1F0C380C300C300C305B
:103750000C300C18FC1FFC070C000C000C000C00BB
:103760000C000C000C000000000000000000000035
:1037700000000000E007F81F1C380E70066003E030
:1037800003C003C003C003C003C007E006630E3FCD
:103790001C3CF83FE0F700C0000000000000000003
:1037A00000000000FE0FFE1F06380630063006300F
:1037B0000638FE1FFE0706030606060C0618061846
:1037C0000630063006600000000000000000000027
:1037D00000000000E003F80F1C0C0C180C180C0083
:1037E0001C00F803E00F001E0038063006300E30D3
:1037F0001C1CF80FE00700000000000000000000A3
:1038000000000000FE7FFE7F8001800180018001BA
:1038100080018001800180018001800180018001A0
:103820008001800180010000000000000000000015
:10383000000000000C300C300C300C300C300C3020
:103840000C300C300C300C300C300C300C300C3098
:103850001818F81FE007000000000000000000003A
:103860000000000003600630063006300C180C180B
:103870000C18180C180C380E300630067007600350
:103880006003C001C0010000000000000000000053
:10389000000000000360C361C361C3616633663327
:1038A00066336633663366336C1B6C1B6C1B2C1AD9
:1038B0003C1E380E380E0000000000000000000022
:1038C000000000000FE00C7018303018700C600E13
:1038D000C00780038003C003E006700C301C18187A
:1038E0000C300E6007E00000000000000000000047
:1038F0000000000003C006600C301C383818300C83
:103900006006E007C0038001800180018001800122
:103910008001800180010000000000000000000024
:1039200000000000FC7FFC7F006000300018000CED
:10393000000600038001C0006000300018000C0089
:103940000600FE7FFE7F0000000000000000000077
:1039500000000000E003E003600060006000600021
:103960006000600060006000600060006000600057
:10397000600060006000600060006000E003E00341
:103980000000000030003000600060006000C000F7
:10399000C000C000C001800180018001000300035D
:1039A0000003000600060000000000000000000008
:1039B00000000000E003E003000300030003000335
:1039C00000030003000300030003000300030003DF
:1039D000000300030003000300030003E003E0030F
:1039E000000000000000C001C0016003600360032C
:1039F00030063006180C180C000000000000000013
:103A000000000000000000000000000000000000B6
:103A100000000000000000000000000000000000A6
:103A20000000000000000000000000000000000096
:103A300000000000FFFFFFFF00000000000000008A
:103A4000000000000C000C000C000C000C000C002E
:103A50000000000000000000000000000000000066
:103A60000000000000000000000000000000000056
:103A70000000000000000000000000000000F00353
:103A8000F8071C0C0C0C000FF00FF80C0C0C0C0CB5
:103A90001C0FF80FF01800000000000000000000EC
:103AA0000000000018001800180018001800D803C3
:103AB000F80F380C1818181818181818181818189B
:103AC000380CF80FD80300000000000000000000D0
:103AD0000000000000000000000000000000C00323
:103AE000F007300E180C1800180018001800180CF9
:103AF000300EF007C00300000000000000000000CE
:103B00000000000000180018001800180018C01B62
:103B1000F01F301C1818181818181818181818182A
:103B2000301CF01FC01B000000000000000000005F
:103B30000000000000000000000000000000C003C2
:103B4000F00F300C1818F81FF81F1800180038185C
:103B5000301CF00FC0070000000000000000000053
:103B600000000000800FC00FC000C000C000F007C0
:103B7000F007C000C000C000C000C000C000C0000E
:103B8000C000C000C00000000000000000000000F5
:103B90000000000000000000000000000000E00D38
:103BA000F80F180E0C0C0C0C0C0C0C0C0C0C0C0C58
:103BB000180EF80FE00D000C0C0C1C06F807F001B5
:103BC0000000000018001800180018001800D8079E
:103BD000F80F381C1818181818181818181818186A
:103BE0001818181818180000000000000000000045
:103BF00000000000C000C000000000000000C00085
:103C0000C000C000C000C000C000C000C000C000B4
:103C1000C000C000C0000000000000000000000064
:103C200000000000C000C000000000000000C00054
:103C3000C000C000C000C000C000C000C000C00084
:103C4000C000C000C000C000C000C000F800780084
:103C5000000000000C000C000C000C000C000C0C10
:103C60000C060C038C01CC006C00FC009C018C0346
:103C70000C030C060C0C000000000000000000000B
:103C800000000000C000C000C000C000C000C000B4
:103C9000C000C000C000C000C000C000C000C00024
:103CA000C000C000C00000000000000000000000D4
:103CB00000000000000000000000000000007C3C4C
:103CC000FF7EC7E383C183C183C183C183C183C135
:103CD00083C183C183C10000000000000000000018
:103CE0000000000000000000000000000000980735
:103CF000F80F381C18181818181818181818181849
:103D00001818181818180000000000000000000023
:103D10000000000000000000000000000000C003E0
:103D2000F00F300C18181818181818181818181838
:103D3000300CF00FC0030000000000000000000085
:103D40000000000000000000000000000000D80398
:103D5000F80F380C181818181818181818181818F8
:103D6000380CF80FD80318001800180018001800B5
:103D70000000000000000000000000000000C01B68
:103D8000F01F301C181818181818181818181818B8
:103D9000301CF01FC01B0018001800180018001875
:103DA0000000000000000000000000000000B0075C
:103DB000F003700030003000300030003000300080
:103DC0003000300030000000000000000000000063
:103DD0000000000000000000000000000000E00300
:103DE000F003380E180C3800F003C007000C180C54
:103DF000380EF007E00300000000000000000000A3
:103E00000000000000008000C000C000C000F007FB
:103E1000F007C000C000C000C000C000C000C0006B
:103E2000C000C00780070000000000000000000084
:103E30000000000000000000000000000000181852
:103E400018181818181818181818181818181818F2
:103E5000381CF01FE0190000000000000000000006
:103E600000000000000000000000000000000C182E
:103E7000180C180C180C300630063006600360036E
:103E80006003C001C001000000000000000000004D
:103E90000000000000000000000000000000C14120
:103EA000C141C36163636363636336363636363656
:103EB0001C1C1C1C1C1C000000000000000000005A
:103EC00000000000000000000000000000001C389E
:103ED000381C300C600660036003600360036006FA
:103EE000300C381C1C3800000000000000000000EE
:103EF000000000000000000000000000000018307A
:103F0000301830187018600C600CE00CC006C00649
:103F100080038003800380018001C001F0007000F5
:103F20000000000000000000000000000000FC1F76
:103F3000FC1F000C000600038001C0006000300080
:103F40001800FC1FFC1F0000000000000000000023
:103F50000000000000038001C000C000C000C000DD
:103F6000C000C00060006000300060004000C00081
:103F7000C000C000C000C000C000800100030000FD
:103F8000000000008001800180018001800180012B
:103F90008001800180018001800180018001800119
:103FA0008001800180018001800180018001800109
:103FB000000000006000C000C0018001800180019D
:103FC000800180010003000300060003000180015E
:103FD00080018001800180018001C000600000003C
:103FE00000000000000000000000000000000000D1
:103FF0000000F010F81F080F000000000000000093
:1040000000000000000000000000000000000000B0
:10401000000000003440000800000020940600006A
:104020000C0200080C4100089406002074050000F2
:1040300060260008520001001817E80300005050E5
:10404000A0A0A0006D00DA005000A000F0002362E4
:104050000001211C43EBBB3C63EBBB0261106156CA
:10406000811AC12201141CA120011A1E21780112FB
:104070001C41906106A19EC118A132C15CE14E01B4
:10408000141E610AA1120128D201120E81A823F286
:10409000E502A1C081BC411C412061EE051EA401C6
:1040A0001C01057CC2051270850AE5C2A5C88110F5
:1040B00001123C691007167FF5C20918BA0536C20D
:1040C0008192C5C2A5C6E5C2012201832362020115
:1040D000181A01142201142A01226C0122940124CD
:1040E000BC01222602FF0001052A0C05287C0524BC
:1040F000C8092614092660091EACDD83048C04A2BD
:0C4100004A04200327FFFF82000000009B
:04000005080001519D
:00000001FF
