:020000040800F2
:1000000008070020650100085F1B0008F5150008BF
:100010005D1B000853020008C11F0008000000001B
:10002000000000000000000000000000211C00088B
:100030005502000800000000811B0008231C000876
:100040007F0100087F0100087F0100087F01000890
:100050007F0100087F0100087F0100087F01000880
:100060007F0100087F0100087F0100087F01000870
:100070007F0100087F0100087F0100087F01000860
:100080007F0100087F0100087F0100087F01000850
:100090007F0100087F0100087F0100087F01000840
:1000A0007F010008151D00087F0100087F0100087E
:1000B000651D00087F0100087F0100087F0100081E
:1000C0007F0100087F0100087F0100087F01000810
:1000D0007F0100087F0100087F0100087F01000800
:1000E0007F0100087F0100087F0100080000000078
:1000F0000000000000000000000000000000000000
:1001000000000000000000007F0100087F010008DF
:100110007F0100087F0100087F0100087F010008BF
:100120007F0100087F0100087F0100087F010008AF
:100130007F0100087F0100087F0100087F0100089F
:100140007F0100087F0100087F0100087F0100088F
:10015000DFF80CD000F040F800480047A922000862
:10016000080700200648804706480047FEE7FEE7EC
:10017000FEE7FEE7FEE7FEE7FEE7FEE7FEE7FEE757
:10018000C11C00085101000840EA01039B0703D08D
:1001900009E008C9121F08C0042AFAD203E011F8C6
:1001A000013B00F8013B521EF9D2704730B50B46B7
:1001B000014600202022012409E021FA02F59D4297
:1001C00005D303FA02F5491B04FA02F52844151E6B
:1001D000A2F10102F1DC30BD064C074D06E0E068FB
:1001E00040F0010394E8070098471034AC42F6D37E
:1001F000FFF7B2FF4C2400086C24000870B58C187F
:1002000010F8015B15F0070301D110F8013B2A112A
:1002100006D110F8012B03E010F8016B01F8016B17
:100220005B1EF9D12B0705D40023521E0DD401F813
:10023000013BFAE710F8013BCB1A921C03E013F8DC
:10024000015B01F8015B521EF9D5A142D8D3002011
:1002500070BDFEE7704731B500F0F0F8044600F0DD
:10026000EDF80099001B8842F9D338BD2DE9F84F0D
:10027000DFF890A100220AF1040B144601274FF089
:100280000F090BF1040E00BF0B6807FA04F52B40B1
:10029000AB4274D1DFF870C14E68A6EB0C0866451E
:1002A0002BD00DDC032E34D005DC36B3012E19D053
:1002B000022E2FD11BE0112E16D0122E2AD119E0BA
:1002C000B8F5881F19D006DCB8F5803F15D0B8F511
:1002D000801F1FD111E0B8F5001F0ED0B8F5041F24
:1002E00018D10AE0CA6815E0CA68121D12E0CA688F
:1002F00008320FE0CA680C320CE08A682AB1012A81
:100300004FF0080203D0456104E0042202E00561D9
:1003100000E00022FF2B01D8064601E000F10406B0
:100320004FEA840501D9A5F12005D6F800C009FAE5
:1003300005F82CEA080C02FA05F54CEA050CC6F89B
:1003400000C04D68ED0057D5304DAE6946F001064E
:10035000AE61AD6924F0030605F0010500952C4D52
:1003600006EB050CDCF80850A6074FEA167809FAE8
:1003700008F6B543274EB04202D1002610E03BE01C
:10038000254EB04201D101260AE0244EB04201D1EF
:10039000022605E0224EB04201D1032600E00426E9
:1003A00006FA08F62E43CCF808604D68DAF80060CB
:1003B000ED03554601D51E4300E09E432E604D6877
:1003C000DBF80060AD035D4601D51E4300E09E43AF
:1003D0002E604D68DEF80060ED02754601D51E43C3
:1003E00000E09E432E604D68AD020E4D2E6801D593
:1003F0001E4300E09E432E60641C102CFFF444AFAB
:10040000BDE8F88F00040140000011100010024008
:100410000000014000080140000C014000100140B4
:10042000001401400C0401408068084000D0012005
:1004300070470AB1016170470904FBE70148006891
:1004400070470000E001002002480168491C01607B
:1004500070470000E0010020074810B5016841F036
:1004600010010160032000F087F8002000F006F87A
:1004700000F016F8002010BD0020024010B5044620
:1004800000F050F94FF47A71B0FBF1F000F086FE05
:1004900000222146501E00F04FF8002010BD000041
:1004A0001D4808B5816941F001018161806900F052
:1004B00001000090052000F05FF8002211466FF067
:1004C0000B0000F039F8002211466FF00A0000F02E
:1004D00033F8002211466FF0090000F02DF80022D9
:1004E0001146501F00F028F800221146101F00F09E
:1004F00023F800221146901E00F01EF8002211463B
:10050000501E00F019F80548416821F0E06141F003
:100510008061416008BD0000001002400000014001
:1005200000F01F02012191404009800000F1E0200D
:10053000C0F8001170470000F0B40E4B1B680C4669
:10054000C3F30223C3F10705042D00D90425191DA7
:10055000072901D2002300E0DB1E012606FA05F17F
:10056000491E214099409E40761E16403143F0BC02
:1005700001F0F6BA0CED00E0064900F00702086849
:100580004FF6FF03184040EA0220034A1043086078
:10059000704700000CED00E00000FA052DE9F0477F
:1005A000DFF8708105460E46D8F8000000F007001D
:1005B000B0420CD2D8F8001021F007013143C8F83E
:1005C0000010D8F8000000F00700B04277D128787A
:1005D000514C800705D56068A96820F0F0000843F9
:1005E00060602878C00759D06968012001290DD0C2
:1005F000022929D05FF0020393FAA3F2B2FA82F241
:1006000042F02002520904D0226803E04FF4003384
:10061000F2E7626A93FAA3F3B3FA83F303F01F03DA
:10062000984002424BD0606820F0030008436060AD
:10063000FFF704FF6968074641F2883001290DD0B1
:100640000229814617D025E04FF00073D4E700BFA0
:10065000FFF7F4FEC11B494501D918E081466068E7
:10066000C0F381000128F3D118E000BFFFF7E6FED8
:10067000C11B49450BD86068C0F381000228F5D141
:100680000CE000BFFFF7DAFEC11B494502D9032089
:10069000BDE8F087606810F00C0FF3D1D8F80010B7
:1006A000404601F00701B1420BD9016821F0070172
:1006B00031430160006800F00700B04201D0012022
:1006C000E6E72878400705D56068E96820F4E0602F
:1006D000084360602878000706D56068296920F41F
:1006E000605040EAC100606000F052F86168F0229A
:1006F00092FAA2F201F0F001B2FA82F2D140074A76
:10070000515CC840064908600020FFF7B7FE002092
:10071000BEE7000000200240001002403424000820
:10072000D80100200148006870470000D80100206F
:1007300008480949006849684FF4E06292FAA2F259
:1007400001F4E061B2FA82F2D140044A515CC8403F
:1007500070470000D8010020001002404424000827
:1007600008480949006849684FF4605292FAA2F2B9
:1007700001F46051B2FA82F2D140044A515CC8409F
:1007800070470000D80100200010024044240008F7
:10079000F0B52DA28AB007CA8DE807002DA103ACE1
:1007A0000FC984E80F002F494B682F4803F00C0253
:1007B000042A02D0082A02D02C480AB0F0BD4FF417
:1007C000701595FAA5F403F47012B4FA84F4E240BB
:1007D0006E461DF80220DB0333D5CB6A0F2494FA52
:1007E000A4F403F00F03B4FA84F4E34003ACE45C34
:1007F000CB6ADB0316D5CB6AF02797FAA7F703F08D
:10080000F003B7FA87F7C96AFB40AF1297FAA7F768
:1008100001F47061B7FA87F7F9405B1CB0FBF3F0A5
:10082000891C4843B0FBF4F095FAA5F350434FF40C
:100830005011B3FA83F3D940715C9142BDD14008A5
:10084000BBE70B485043B8E700000405060708095A
:100850000000000D0102030405060708090A0B0C3D
:100860000D0E0F100010024040787D0100127A003A
:1008700000093D002DE9F84F04460078F74DC00708
:100880004FF0010625D068687704C0F38100012885
:1008900007D06868C0F3810002281BD16868C003D4
:1008A00018D597FAA7F0B0FA80F040F02000400980
:1008B00001D0286800E0686A97FAA7F1B1FA81F1DF
:1008C00001F01F0106FA01F108425ED0A06800287D
:1008D0007BD05AE0A068B0F5803F0BD010B1B0F5E6
:1008E000A02F11D0286820F480302860286820F4D8
:1008F000802002E0286840F480302860A06828B397
:10090000FFF79CFD80460BE0286840F480202860BB
:10091000F0E700BFFFF792FDA0EB0800642870D855
:1009200097FAA7F0B0FA80F040F02000400901D01B
:10093000286800E0686A97FAA7F1B1FA81F101F03E
:100940001F0106FA01F10842E4D01EE0FFF776FD30
:10095000804605E0FFF772FDA0EB08006428DED8B2
:1009600097FAA7F0B0FA80F040F02000400901D0DB
:10097000286800E0686A97FAA7F1B1FA81F101F0FE
:100980001F0106FA01F10842E4D12078B44F800734
:100990004FF002084FF000095AD568684FF0F80B85
:1009A00010F00C0F07D06868C0F3810002281CD13A
:1009B0006868C00319D498FAA8F0B0FA80F040F043
:1009C0002000400902D0286801E08BE0686A98FAAC
:1009D000A8F1B1FA81F101F01F0106FA01F1084214
:1009E0002BD0606901287DD127E0606988B396FA31
:1009F000A6F0B0FA80F047F82060FFF71FFD8246AE
:100A000006E018E2FFF71AFDA0EB0A00022886D8DC
:100A100098FAA8F0B0FA80F040F02000400901D028
:100A2000286800E0686A98FAA8F1B1FA81F101F04B
:100A30001F0106FA01F10842E4D028689BFAABF2E4
:100A4000A169B2FA82F220F0F800914008432860D0
:100A500025E0FFE796FAA6F1B1FA81F147F8219077
:100A6000FFF7ECFC824605E0FFF7E8FCA0EB0A008C
:100A70000228CCD898FAA8F0B0FA80F040F0200014
:100A8000400901D0286800E0686A98FAA8F1B1FA34
:100A900081F101F01F0106FA01F10842E4D120784A
:100AA00000076FD5E069C0B396FAA6F0B0FA80F0FF
:100AB00007EB8000C0F88064FFF7C0FC824605E0C9
:100AC000FFF7BCFCA0EB0A000228A0D898FAA8F116
:100AD000B1FA81F141F060014046B6EB511F02D1FD
:100AE00029680CE072E190FAA0F1B1FA81F141F0CD
:100AF0006001B0EB511F01D1296A00E0696A98FAE0
:100B0000A8F0B0FA80F000F01F0206FA02F00142ED
:100B1000D6D00120FFF79FFB34E0FFE796FAA6F15D
:100B2000B1FA81F107EB8101C1F88094FFF786FCEF
:100B3000824605E0FFF782FCA0EB0A00022898D865
:100B400098FAA8F1B1FA81F141F060014046B6EBA4
:100B5000511F01D129680BE090FAA0F1B1FA81F19F
:100B600041F06001B0EB511F01D1296A00E0696AD0
:100B700098FAA8F0B0FA80F000F01F0206FA02F02E
:100B80000142D7D12078400766D5E86940F080500F
:100B9000E861E869DFF8CCB000F080500090DBF845
:100BA000001041F48071CBF80010FFF747FC82463B
:100BB00006E000BFFFF742FCA0EB0A00642884D8DF
:100BC000DBF80000C005F5D5206901280AD008B17E
:100BD000052813D0286A20F001002862286A20F036
:100BE000040002E0286A40F001002862206941F216
:100BF000883B90B3FFF722FC82460BE0286A40F066
:100C000004002862EEE700BFFFF718FCA0EB0A0122
:100C1000594594D898FAA8F1B1FA81F141F0400110
:100C20004046B6EB511F01D129680BE090FAA0F1C4
:100C3000B1FA81F141F04001B0EB511F01D1296AB5
:100C400000E0696A98FAA8F0B0FA80F000F01F029C
:100C500006FA02F00142D7D032E005E0001002406F
:100C60000000424200700040FFF7E8FB824605E0CA
:100C7000FFF7E4FBA0EB0A015945A0D898FAA8F1C8
:100C8000B1FA81F141F040014046B6EB511F01D16C
:100C900029680BE090FAA0F1B1FA81F141F040012E
:100CA000B0EB511F01D1296A00E0696A98FAA8F0F7
:100CB000B0FA80F000F01F0206FA02F00142D7D12C
:100CC000E16AA1B36868C00307D56868C0F3810012
:100CD000022802D1E86AC00378D44FF0806002296C
:100CE0000FD0E96A21F48031E96290FAA0F0B0FAFD
:100CF00080F047F82090FFF7A1FB80464FF0006A94
:100D00006CE02968C90005D5E96A626B01F0F00161
:100D100091425BD1834690FAA0F0B0FA80F047F898
:100D20002090FFF78BFB82464FF0006806E06AE0F8
:100D3000FFF784FBA0EB0A0064287CD898FAA8F09F
:100D4000B0FA80F040F02000400901D0286800E0AF
:100D5000686A98FAA8F1B1FA81F101F01F0106FA68
:100D600001F10842E4D1E86A616B20F0F000084329
:100D7000E862E86A216B20F470600843E8629BFA3D
:100D8000ABF0B0FA80F047F82060FFF757FB8246DF
:100D900006E000BFFFF752FBA0EB0A0064284AD828
:100DA00098FAA8F0B0FA80F040F02000400901D095
:100DB000286800E0686A98FAA8F1B1FA81F101F0B8
:100DC0001F0106FA01F10842E4D01CE099E000BFDF
:100DD000FFF734FBA0EB080064282CD89AFAAAF09D
:100DE000B0FA80F040F02000400901D0286800E00F
:100DF000686A9AFAAAF1B1FA81F101F01F0106FAC4
:100E000001F10842E4D1206AA0B36968C1F381010D
:100E1000022976D04FF080714FF0007B02280BD072
:100E200091FAA1F1B1FA81F147F82190FFF706FBA1
:100E300007465C466EE06AE091FAA1F04A46B0FAD5
:100E400080F08946BA4647F82020FFF7F7FA804637
:100E50005F4605E0FFF7F2FAA0EB0800022856D83B
:100E600097FAA7F0B0FA80F040F02000400902D0D5
:100E7000286801E063E0686A97FAA7F1B1FA81F1A6
:100E800001F01F0106FA01F10842E3D1606AB0F5F2
:100E9000803F09D1E86A61680843E862E86AE1686E
:100EA00020F00F000843E862D4E9090108436968AB
:100EB00021F474110843686099FAA9F0B0FA80F03F
:100EC0004AF82060FFF7BAFA044604E0FFF7B6FAE2
:100ED000001B02281BD897FAA7F0B0FA80F040F068
:100EE0002000400901D0286800E0686A97FAA7F15D
:100EF000B1FA81F101F01F0106FA01F10842E5D0D3
:100F00001DE01EE0FFF79AFAC01B022802D9032059
:100F1000BDE8F88F94FAA4F0B0FA80F040F0200019
:100F2000400901D0286800E0686A94FAA4F1B1FA97
:100F300081F101F01F0106FA01F10842E2D100201F
:100F4000E6E70120E4E790F85100704710B504008F
:100F500003D094F8510010B104E0012010BD2046E8
:100F600000F038F8022084F851002068016821F070
:100F700040010160D4E901010843D4E9031211439F
:100F8000084361690843218B01F400710843E1695A
:100F90000843216A0843A16A084321680860A069E0
:100FA000042101EA1040616A084321684860216811
:100FB000E06A08612068C16921F40061C1610449E7
:100FC000002008706065012084F85100002010BDE9
:100FD000DC01002010B50068144986B0884222D197
:100FE0001348C16941F40041C161C069114C00F46A
:100FF000004004904FF4A050009002200190032084
:10100000039069462046FFF731F90021E014CDE94D
:101010000001029169462046FFF728F90648416819
:1010200041F08051416006B010BD0000003C00401E
:101030000010024000100140000001402DE9F8437B
:10104000044690F851009846012870D139B332B364
:1010500094F8500001286AD0012684F850601220CC
:1010600084F85100002565652163A286E286E56467
:10107000A564A563A587E587A06A7703B84209D16F
:101080002068016821F4005101602068016841F482
:1010900000510160A068B0F5004F03D007E00120C7
:1010A000BDE8F8832068016841F480410160206850
:1010B0000168490603D4016841F040010160E0681D
:1010C0000028606804D0D8B1E08E012818D021E053
:1010D00010B1E08E012808D1206B411C21632168EA
:1010E0000078C860E08E401EE0860004000C1FD02F
:1010F000434600220221204600F043FDA8B9EBE759
:10110000206B21680088C860206B801C2063E08E03
:10111000401EE0860004000C0AD043460022022153
:10112000204600F02EFD0028EAD00320B8E726E094
:10113000A06AB84204D12068016841F4805101607E
:10114000434600220221204600F01BFD30B94346F1
:1011500001228021204600F014FD20B1606D40F096
:1011600010006065E1E7A06818B92068C168806870
:10117000009084F8516084F85050002090E70220DD
:101180008EE74FF0E0210428086903D020F0040026
:101190000861704740F00400FAE7704710B5401E40
:1011A000B0F1807F01D3012010BD4FF0E0246061D9
:1011B0000F21601700F0D4FC0020A06107202061FF
:1011C000002010BD10B5FFF7E8FF10BD7047704755
:1011D00030B590F83820012A20D0012280F838203C
:1011E000022380F8393003685C6824F070045C6086
:1011F00003685C680D682C435C6003689C6824F09D
:1012000080049C6003689C6849680C439C6080F87B
:101210003920002180F83810084630BD022030BD4A
:1012200010B5040003D094F8390010B107E0012094
:1012300010BD002084F83800204600F00DF8022090
:1012400084F83900211D206800F092FD012084F807
:101250003900002010BD000008B5154A0168154886
:1012600091420ED1816941F400618161806900225F
:1012700000F40060009001211920FFF75DF91920AA
:1012800010E0B1F1804F11D1C16941F00101C1619C
:10129000C069002200F00100009002211C20FFF72D
:1012A0004BF91C20BDE80840FFF73AB908BD000023
:1012B000002C0140001002400168CA6842F001029F
:1012C000CA600068016841F00101016000207047B8
:1012D00070B5044690F83800012817D0012584F82D
:1012E0003850022084F839002068826822F07702A2
:1012F00022F47F4282600868502837D00DDC202815
:1013000059D005DC88B3102841D151E0022070BDCE
:10131000302853D040283AD13FE060282ED07028A2
:101320000BD0B0F5805F03D0B0F5005F2FD110E097
:101330002068816821F0070115E0CB68D1E901211F
:10134000206800F04FFD2168886840F077008860D1
:101350001DE0CB68D1E90121206800F043FD206841
:10136000816841F48041816011E01EE0CA684968EB
:10137000206800F049FD5021206806E0CA684968ED
:10138000206800F052FD6021206800F035FD84F8EF
:101390003950002084F8380070BDCA684968206858
:1013A00000F032FD40212068EFE700212068ECE7E3
:1013B00010212068E9E720212068E6E73021206835
:1013C000E3E7704770B50446006801694FF0000517
:1013D000C943890715D4C168C943890711D4E91ED7
:1013E000016101202076206880698007204602D0B4
:1013F000FFF7E7FF04E000F098F8204600F096F8C9
:10140000257620680169C943490717D4C168C943D3
:10141000490713D46FF0040101610220207620688F
:10142000806910F4407F204602D0FFF7CAFF04E035
:1014300000F07BF8204600F079F8257620680169F5
:10144000C943090716D4C168C943090712D46FF00C
:1014500008010161042020762068C06980072046C9
:1014600002D0FFF7AEFF04E000F05FF8204600F086
:101470005DF8257620680169C943C90617D4C1689B
:10148000C943C90613D46FF010010161082020760A
:101490002068C06910F4407F204602D0FFF791FF1A
:1014A00004E000F042F8204600F040F8257620687D
:1014B0000169C943C90708D1C168C943C90704D133
:1014C000891E0161204600F032F820680169C94395
:1014D000090609D4C168C943090605D46FF0800123
:1014E00001612046FFF772FE20680169C943490681
:1014F00009D4C168C943490605D46FF040010161B0
:10150000204600F015F820680169C94389060BD40C
:10151000C168C943890607D46FF0200101612046E4
:10152000BDE87040FFF753BE70BD7047704770470D
:10153000704770B5040004D094F83900002510B14C
:1015400006E0012070BD84F83850204600F020F8F5
:10155000022084F839002068C16821F40051C1607C
:10156000204600F075FC2068016921F4904101617A
:101570002068416921F02A0141612068C16841F475
:101580000051C160E563012084F83900002070BD7E
:1015900010B50068134986B0884221D11248C1694C
:1015A00041F40031C161C069104C00F40030049076
:1015B00020200090022001900320039069462046DD
:1015C000FEF754FE00214020CDE90001029169465A
:1015D0002046FEF74BFE0648416841F00801416095
:1015E00006B010BD0044004000100240001401404D
:1015F00000000140FEE770B505460C462B2000F0C8
:101600005DF9280A00F09CF9E8B200F099F92A2067
:1016100000F054F9200A00F093F9E0B2BDE8704000
:1016200000F08EB970B5A44D012280212846FEF746
:1016300000FF3220FEF70FFE012000F03FF90520E9
:10164000FEF709FE282000F039F9CF2000F036F926
:10165000002000F075F9832000F072F9302000F0CE
:101660006FF9ED2000F02AF9642000F069F90320F9
:1016700000F066F9122000F063F9812000F060F9B3
:10168000E82000F01BF9852000F05AF9012000F055
:1016900057F9792000F054F9CB2000F00FF93920E8
:1016A00000F04EF92C2000F04BF9002000F048F932
:1016B000342000F045F9022000F042F9F72000F054
:1016C000FDF8202000F03CF9EA2000F0F7F80020B7
:1016D00000F036F9002000F033F9C02000F0EEF8F9
:1016E000262000F02DF9C12000F0E8F8112000F0CC
:1016F00027F9C52000F0E2F8352000F021F93E205E
:1017000000F01EF9C72000F0D9F8BE2000F018F94B
:10171000362000F0D3F8A82000F012F93A2000F0AB
:10172000CDF8552000F00CF9B12000F0C7F80020EA
:1017300000F006F91B2000F003F9F22000F0BEF8DB
:10174000082000F0FDF8262000F0B8F8012000F095
:10175000F7F8E02000F0B2F81F2000F0F1F81A20AE
:1017600000F0EEF8182000F0EBF80A2000F0E8F89E
:101770000F2000F0E5F8062000F0E2F8452000F028
:10178000DFF8872000F0DCF8322000F0D9F80A20DA
:1017900000F0D6F8072000F0D3F8022000F0D0F8CF
:1017A000072000F0CDF8052000F0CAF8002000F076
:1017B000C7F8E12000F082F8002000F0C1F82520F1
:1017C00000F0BEF8272000F0BBF8052000F0B8F8C4
:1017D000102000F0B5F8092000F0B2F83A2000F02F
:1017E000AFF8782000F0ACF84D2000F0A9F8052003
:1017F00000F0A6F8182000F0A3F80D2000F0A0F8E3
:10180000382000F09DF83A2000F09AF81F2000F0F0
:1018100097F82A2000F052F8002000F091F80020FC
:1018200000F08EF8012000F08BF83F2000F088F8DF
:101830002B2000F043F8002000F082F8002000F098
:101840007FF8002000F07CF8EF2000F079F8B72056
:1018500000F034F8072000F073F8B62000F02EF8FE
:101860000A2000F06DF8C22000F06AF8272000F08E
:1018700067F8002000F064F8112000F01FF86420E1
:10188000FEF7E9FC2C2000F019F800244FF49636FE
:10189000002000F097F8641CB442F9DB292000F026
:1018A0000DF86420FEF7D7FC2846BDE87040012201
:1018B0008021FEF7BEBD00000014014071B585B067
:1018C0004FF4A05000900120019003201A4C039087
:1018D00069462046FEF7CAFC0022A1142046FEF706
:1018E000A8FD2515002229462046FEF7A2FDA615D3
:1018F000002231462046FEF79CFD01222946204663
:10190000FEF797FD002229462046FEF792FD0B4880
:10191000FFF760FB0A23012205A90848FFF78EFBA9
:101920000648FFF710FB1228FAD001223146204664
:10193000FEF77FFD06B070BD00100140F8010020E9
:1019400071B585B04FF4A0500090012001900320A4
:101950001A4C039069462046FEF788FC01221103C9
:101960002046FEF766FD2515002229462046FEF793
:1019700060FDA615002231462046FEF75AFD0122E1
:1019800029462046FEF755FD002229462046FEF74F
:1019900050FD0B48FFF71EFB0A23012205A908484A
:1019A000FFF74CFB0648FFF7CEFA1228FAD00122C7
:1019B00031462046FEF73DFD06B070BD00100140E7
:1019C000F801002010B50446000AFFF7B9FFE0B2A5
:1019D000BDE81040FFF7B4BF2DE9F04F364885B0A1
:1019E000816941F040018161816901F04001049108
:1019F000816941F020018161816901F02001049138
:101A0000816941F010018161816901F01001049147
:101A1000816941F0040181618069002400F00400C3
:101A200004901820CDE90004DFF890B069465846CC
:101A30000294FEF71BFC4FF4F0780125CDE90085F8
:101A40000226694658460396FEF710FC4FF478408C
:101A5000CDE90004DFF86890694648460294FEF735
:101A600005FC2F02DFF85CA0CDE900756946504601
:101A70000396FEF7FBFBCDE9007469461248029419
:101A8000FEF7F4FB8020CDE9000569460396484641
:101A9000FEF7ECFB002241465846FEF7CAFC002246
:101AA00039465046FEF7C5FC002280214846FEF725
:101AB000C0FC05B0BDE8F08F0010024000180140E6
:101AC0000014014000100140000801400E4810B50C
:101AD0000C4901604FF48271416000218160C16056
:101AE0004FF400720161C0E90512C16101624162F7
:101AF00081620A21C162FFF729FA002800D0FEE7BF
:101B000010BD0000003C0040F801002010B5124854
:101B100086B010490024C0E900148460C4600461E8
:101B20004461FFF77DFB00B1FEE74FF48050009069
:101B300069460948FFF7CCFB00B1FEE7049404A90D
:101B400005480594FFF744FB002800D0FEE706B0E7
:101B500010BD0000002C014050020020FEE770473D
:101B60000907090E002806DA00F00F0000F1E02056
:101B700080F8141D704700F1E02080F800147047D1
:101B800070472DE9F0471D4690460E460446FEF785
:101B900055FC07465FEA08004FF000084FF4005A72
:101BA0004FF0010926D034E0681C23D025B1FEF7A0
:101BB00045FCC01BA8421DD92068416821F0E00106
:101BC00041602068016821F040010160A06A504531
:101BD00009D12068016821F4005101602068016882
:101BE00041F40051016084F8519084F85080032042
:101BF000BDE8F0872068806836EA0000D4D10DE0A7
:101C0000681C06D0002DD7D0FEF718FCC01BA842D8
:101C1000D2D82068806836EA0000F1D00020E7E7DB
:101C2000704710B5FEF710FCBDE81040FFF7CABAC8
:101C300030B593B0012528040421CDE90201022426
:101C4000CDE908400095019005954FF4E010CDE9ED
:101C50000A044FF4C0600C9040200D906846FEF7D7
:101C600009FE00B1FEE70F20CDE90E0400204FF47D
:101C70008061CDE91001129002210EA8FEF78EFCC2
:101C800000B1FEE7FEF74EFD4FF47A71B0FBF1F0C4
:101C9000FFF784FA0420FFF774FA4FF0805090FAAF
:101CA000A0F00649B0FA80F041F820500022114619
:101CB000501EFEF741FC13B030BD00000000424250
:101CC0001048016841F00101016041680E4A11406D
:101CD000416001680D4A11400160016821F48021D2
:101CE0000160416821F4FE014160016821F0A051CA
:101CF00001604FF47F0181600021C1620449C0038B
:101D000008607047001002400000FFF0FFFFF6FE81
:101D100008ED00E010B50F48FFF754FB0E480168CE
:101D2000491C01604FF47A70B1FBF0F200FB121213
:101D30000A4812B90268521C02604EF66022B1FBDA
:101D4000F2F1074A116001683C2901D100210160CC
:101D500010BD000050020020D40100200800002027
:101D60000C0000200148FFF72DBB00008C02002072
:101D7000F0B50268174B184C184D194E4FF08047BC
:101D8000984207D0B84205D0A04203D0A84201D063
:101D9000B04204D122F0700C4A6842EA0C02984228
:101DA00007D0B84205D0A04203D0A84201D0B0422B
:101DB00003D122F44074CA68224302608A68C26276
:101DC0000A688262984201D1096901630121416177
:101DD000F0BD0000002C014000040040000800405D
:101DE000000C004010B5846842EA032224F47F44CA
:101DF0000A432243826010BD826822F070020A43C7
:101E000042F007018160704710B5036A046A24F04C
:101E100001040462846924F0F00444EA021423F00B
:101E20000A020A438461026210BD10B5036A23F0FE
:101E3000100303628369046A23F4704343EA0232A5
:101E400024F0A00343EA01118261016210BD000089
:101E50002DE9F041044600680169E26821F440512F
:101E6000114301612169A068084361690843216841
:101E7000CA6841F20C639A430243CA602068416910
:101E8000A26921F44071114341614C4920686425E5
:101E9000322688423CD1FEF763FC00EBC00101EB27
:101EA000001061688900B0FBF1F7FEF759FC00EB08
:101EB000C00101EB00106168B0468900B0FBF1F091
:101EC000B0FBF5F06FF01801484307EB800106EB1B
:101ED0000110B0FBF5F000F0F006FEF741FC00EB5E
:101EE000C00101EB001061688900B0FBF1F0B0FBAC
:101EF000F5F006EB0016FEF733FC00EBC00101EB3A
:101F0000001061688900B0FBF1F7FEF729FC3BE0A7
:101F1000FEF70EFC00EBC00101EB001061688900C8
:101F2000B0FBF1F7FEF704FC00EBC00101EB001081
:101F30006168B0468900B0FBF1F0B0FBF5F06FF0DE
:101F40001801484307EB800106EB0110B0FBF5F0E8
:101F500000F0F006FEF7ECFB00EBC00101EB001017
:101F600061688900B0FBF1F0B0FBF5F006EB0016FC
:101F7000FEF7DEFB00EBC00101EB00106168890099
:101F8000B0FBF1F7FEF7D4FB00EBC00101EB001052
:101F900061688900B0FBF1F0B0FBF5F06FF018015B
:101FA000484307EB800108EB0110B0FBF5F0216816
:101FB00000F00F0030448860BDE8F0810038014037
:101FC000FEE700000FB4084B10B504A902AA03985D
:101FD00000F01CF8044602A9002000F0C1F82046D9
:101FE00010BC5DF814FB00006121000802E008C885
:101FF000121F08C1002AFAD170477047002001E083
:1020000001C1121F002AFBD1704700002DE9FF4FCC
:1020100089B09B460446002506E025280BD05A4689
:102020000B999047641C6D1C20780028F5D10DB0E9
:102030002846BDE8F08F0027B8460122474900E056
:10204000074314F8013F203B02FA03F00842F7D19E
:1020500020782E2819D114F8010F47F004072A28F8
:102060000ED06FF02F022078A0F1300109290CD892
:1020700008EB880102EB410100EB0108641CF2E768
:102080000A98641C50F8048B0A9020780028CED05F
:10209000642808D0692806D075281ED05A460B99A6
:1020A00090476D1C58E00A994FF00A0901C90A913E
:1020B000002802DA40422D2102E0390504D52B2107
:1020C0008DF82010012103E0F90704D02021F7E763
:1020D0008A4608AE0DE00021FAE70A994FF00A0996
:1020E00001C90A91F7E74946FEF760F8303106F872
:1020F000011D0028F7D1ADEB060000F1200978079B
:1021000001D44FF00108C84502DDA8EB090000E04A
:1021100000208046002706E008A85A46C05D0B99BB
:1021200090476D1C7F1C5745F6DB04E030205A4673
:102130000B9990476D1CB8F10001A8F10108F5DC7E
:1021400005E016F8010B5A460B9990476D1CB9F142
:102150000001A9F10109F4DC641C65E7092801000C
:102160000A68531C0B601070704700002DE9F041A5
:102170004B4F4FF4006841463846FEF755F90125AC
:10218000484C002608B9206828B141463846FEF779
:102190004BF930B10DE00021084600F025F925602B
:1021A00007E02068012804D10021084600F006F964
:1021B00026604FF4805841463846FEF735F908B995
:1021C000606828B141463846FEF72EF930B10DE07F
:1021D000DA21502000F008F9656007E06068012806
:1021E00004D1DA21502000F0E9F866604FF400587D
:1021F00041463846FEF718F908B9A06828B14146AB
:102200003846FEF711F930B10DE05021A02000F062
:10221000EBF8A56007E0A068012804D15021A020B8
:1022200000F0CCF8A6604FF4804841463846FEF7EF
:10223000FBF808B9E06828B141463846FEF7F4F8E3
:1022400030B10DE0A021084600F0CEF8E56007E0CF
:10225000E068012804D1A021084600F0AFF8E6604C
:102260004FF4004841463846FEF7DEF808B92069C9
:1022700078B141463846FEF7D7F8002807D12069E3
:10228000012804D1F021A02000F098F82661BDE8D3
:10229000F081F021A02000F0A7F82561F7E7000009
:1022A00000140140E401002090B0FEF7D5F8FFF7DC
:1022B000BFFCFFF791FBFFF709FC264824490024E7
:1022C00001604FF4E131C0E901140C21C460C0E9A0
:1022D00004418461C461FFF72CF900B1FEE71D4899
:1022E0004FF080413C38C0E900148460C460046150
:1022F000FEF796FF00B1FEE74FF4805000901548BE
:1023000069463C38FEF7E4FF00B1FEE7114804944B
:1023100004A93C380594FEF75BFF00B1FEE7FFF728
:10232000F5FB0C487838FEF7C7FF14220AA106A86F
:10233000FDF72AFF0D480EA1D0E902320BA8FFF7E6
:1023400041FEFFF76FF900BFFFF710FFFCE7000049
:1023500000440040C802002063686179616E696EC4
:10236000206368616E7468616E6F6E6400000020A7
:1023700020202020202025643A25642020202020B1
:10238000202020002DE9F047CE1C914688460446C7
:10239000C71C0FE045460AE0A9B2A0B2FFF72BF92F
:1023A0002C20FFF78BFA4846FFF70CFB6D1CB5425B
:1023B000F2DD641CBC42EDDDBDE8F0872DE9F041A3
:1023C000884607460025002405EB08063146E0193B
:1023D0000022FFF7D7FFE41C2D2CF7DBED1C2D2D81
:1023E000F1DBBDE8F08100002DE9F0470025DFF8C2
:1023F00040808A4681460327002405EB0A0600BF79
:1024000094FBF7F0C0EB001108EB410095FBF7F1EE
:1024100030F81120314604EB0900FFF7B3FFE41C4C
:102420002D2CEDDBED1C2D2DE6DBBDE8F08700004B
:102430001000002000000000000000000102030462
:102440000607080900000000010203046C240008CC
:1024500000000020E4010000FC010008BC2400088A
:10246000E401002024050000FC1F000821022D0AC1
:102470006BEBBB086902C918A91AC92209141CA967
:1024800020091A1E290809121C49206906A99EC99B
:1024900018A932C95CE94E09141E690AA912092853
:1024A000D209120E89A82BF2E502A9C089BC491CE9
:0C24B00049206914012584A24A040000A0
:04000005080001519D
:00000001FF
